:020000040800F2
:1000000030050020CD010008D1010008D30100080F
:10001000D5010008D7010008D90100080000000040
:10002000000000000000000000000000DB010008EC
:10003000DD01000800000000DF010008E101000808
:10004000E3010008E3010008E3010008E301000800
:10005000E3010008E3010008E3010008E3010008F0
:10006000E3010008E3010008E3010008E3010008E0
:10007000E3010008E3010008E3010008E3010008D0
:10008000E3010008E3010008E3010008E3010008C0
:10009000E3010008E3010008E3010008E3010008B0
:1000A000E3010008E3010008E3010008E3010008A0
:1000B000E3010008E3010008E3010008E301000890
:1000C000E3010008E3010008E3010008E301000880
:1000D000E3010008D9020008E3010008E301000879
:1000E000E3010008E3010008E3010008E301000860
:1000F000E3010008E3010008E3010008E301000850
:10010000E3010008E3010008E3010008E30100083F
:10011000E3010008E3010008E3010008E30100082F
:10012000E3010008E3010008E3010008E30100081F
:1001300000F002F800F03AF80AA090E8000C8244BF
:100140008344AAF10107DA4501D100F02FF8AFF29C
:10015000090EBAE80F0013F0010F18BFFB1A43F0A5
:10016000010318471802000038020000103A24BFAB
:1001700078C878C1FAD8520724BF30C830C144BF0C
:1001800004680C607047000000230024002500264E
:10019000103A28BF78C1FBD8520728BF30C148BFEA
:1001A0000B6070471FB51FBD10B510BD00F02DF8D6
:1001B0001146FFF7F7FF00F0D3F800F04BF803B457
:1001C000FFF7F2FF03BC00F0C9F800000848004741
:1001D000FEE7FEE7FEE7FEE7FEE7FEE7FEE7FEE7F7
:1001E000FEE7FEE703480449024A044B704700005B
:1001F00031010008300100203005002030010020CE
:1002000070477047704770477047754600F028F890
:10021000AE4605006946534620F00700854618B0F3
:1002200020B5FFF7DFFFBDE820404FF000064FF09C
:1002300000074FF000084FF0000B21F00701AC461B
:10024000ACE8C009ACE8C009ACE8C009ACE8C0093A
:100250008D4670470446AFF300802046FFF7AFFF9E
:1002600000487047D00000201848806940F008001E
:10027000164988610846806940F04000886114484A
:10028000006820F47000124908600846006840F4D5
:10029000401008600E480C30006840F020000C4907
:1002A0000C3108600B48006820F4700009490860B0
:1002B0000846006840F44010086006480C300068AA
:1002C00040F0010003490C31086070470010024003
:1002D000000C0140001801401D49098801F020016F
:1002E00011B31B49091D0988C8B21A49098801F4CC
:1002F0000041C9B91749098801F4804161B10A2850
:1003000003D00021134A118020E01249098841F4EA
:100310000041104A118019E00D2806D10D490988C5
:1003200041F480410B4A118010E00A490988C1F369
:100330000D01094A505407490988491C054A118092
:1003400011460988C72901DD00211180704700008E
:1003500000380140040000200800002000BF704762
:10036000FFF782FF05E06FF02000024908600249B4
:100370000860F8E70C0C01400C1801409C030008D1
:1003800000000020080000006C010008A403000821
:100390000800002028050000880100080000000077
:0403A0000000000059
:0400000508000131BD
:00000001FF
